{
  "contractName": "JotaliExchange",
  "abi": [
    {
      "inputs": [],
      "payable": false,
      "stateMutability": "nonpayable",
      "type": "constructor"
    },
    {
      "constant": false,
      "inputs": [],
      "name": "depositEther",
      "outputs": [],
      "payable": true,
      "stateMutability": "payable",
      "type": "function"
    },
    {
      "constant": false,
      "inputs": [
        {
          "name": "amountInWei",
          "type": "uint256"
        }
      ],
      "name": "withdrawEther",
      "outputs": [],
      "payable": false,
      "stateMutability": "nonpayable",
      "type": "function"
    },
    {
      "constant": true,
      "inputs": [],
      "name": "getEtherBalanceInWei",
      "outputs": [
        {
          "name": "",
          "type": "uint256"
        }
      ],
      "payable": false,
      "stateMutability": "view",
      "type": "function"
    },
    {
      "constant": false,
      "inputs": [
        {
          "name": "symbolName",
          "type": "string"
        },
        {
          "name": "erc20TokenAddress",
          "type": "address"
        }
      ],
      "name": "addToken",
      "outputs": [],
      "payable": false,
      "stateMutability": "nonpayable",
      "type": "function"
    },
    {
      "constant": true,
      "inputs": [
        {
          "name": "symbolName",
          "type": "string"
        }
      ],
      "name": "hasToken",
      "outputs": [
        {
          "name": "",
          "type": "bool"
        }
      ],
      "payable": false,
      "stateMutability": "view",
      "type": "function"
    },
    {
      "constant": true,
      "inputs": [
        {
          "name": "symbolName",
          "type": "string"
        }
      ],
      "name": "getBuyOrderBook",
      "outputs": [
        {
          "name": "",
          "type": "uint256[]"
        },
        {
          "name": "",
          "type": "uint256[]"
        }
      ],
      "payable": false,
      "stateMutability": "view",
      "type": "function"
    },
    {
      "constant": true,
      "inputs": [
        {
          "name": "symbolName",
          "type": "string"
        }
      ],
      "name": "getSellOrderBook",
      "outputs": [
        {
          "name": "",
          "type": "uint256[]"
        },
        {
          "name": "",
          "type": "uint256[]"
        }
      ],
      "payable": false,
      "stateMutability": "view",
      "type": "function"
    },
    {
      "constant": false,
      "inputs": [
        {
          "name": "symbolName",
          "type": "string"
        },
        {
          "name": "priceInWei",
          "type": "uint256"
        },
        {
          "name": "amount",
          "type": "uint256"
        }
      ],
      "name": "buyToken",
      "outputs": [],
      "payable": false,
      "stateMutability": "nonpayable",
      "type": "function"
    },
    {
      "constant": false,
      "inputs": [
        {
          "name": "symbolName",
          "type": "string"
        },
        {
          "name": "priceInWei",
          "type": "uint256"
        },
        {
          "name": "amount",
          "type": "uint256"
        }
      ],
      "name": "sellToken",
      "outputs": [],
      "payable": false,
      "stateMutability": "nonpayable",
      "type": "function"
    },
    {
      "constant": false,
      "inputs": [
        {
          "name": "symbolName",
          "type": "string"
        },
        {
          "name": "isSellOrder",
          "type": "bool"
        },
        {
          "name": "priceInWei",
          "type": "uint256"
        },
        {
          "name": "offerKey",
          "type": "uint256"
        }
      ],
      "name": "cancelOrder",
      "outputs": [],
      "payable": false,
      "stateMutability": "nonpayable",
      "type": "function"
    }
  ],
  "bytecode": "0x6060604052341561000f57600080fd5b336000806101000a81548173ffffffffffffffffffffffffffffffffffffffff021916908373ffffffffffffffffffffffffffffffffffffffff1602179055506109f08061005e6000396000f3006060604052600436106100a4576000357c0100000000000000000000000000000000000000000000000000000000900463ffffffff16806303bc4a27146100a95780633bed33ce146101a35780635320024e146101c65780635ab8ea33146101ef578063728ff0291461025e578063851030fe146103585780638ea00818146103c757806398ea5fca1461043c578063b0b22c2c14610446578063d1a3b025146104c2575b600080fd5b34156100b457600080fd5b610104600480803590602001908201803590602001908080601f0160208091040260200160405190810160405280939291908181526020018383808284378201915050505050509190505061053c565b604051808060200180602001838103835285818151815260200191508051906020019060200280838360005b8381101561014b578082015181840152602081019050610130565b50505050905001838103825284818151815260200191508051906020019060200280838360005b8381101561018d578082015181840152602081019050610172565b5050505090500194505050505060405180910390f35b34156101ae57600080fd5b6101c46004808035906020019091905050610551565b005b34156101d157600080fd5b6101d9610554565b6040518082815260200191505060405180910390f35b34156101fa57600080fd5b61025c600480803590602001908201803590602001908080601f01602080910402602001604051908101604052809392919081815260200183838082843782019150505050505091908035906020019091908035906020019091905050610559565b005b341561026957600080fd5b6102b9600480803590602001908201803590602001908080601f0160208091040260200160405190810160405280939291908181526020018383808284378201915050505050509190505061055e565b604051808060200180602001838103835285818151815260200191508051906020019060200280838360005b838110156103005780820151818401526020810190506102e5565b50505050905001838103825284818151815260200191508051906020019060200280838360005b83811015610342578082015181840152602081019050610327565b5050505090500194505050505060405180910390f35b341561036357600080fd5b6103c5600480803590602001908201803590602001908080601f01602080910402602001604051908101604052809392919081815260200183838082843782019150505050505091908035906020019091908035906020019091905050610573565b005b34156103d257600080fd5b610422600480803590602001908201803590602001908080601f01602080910402602001604051908101604052809392919081815260200183838082843782019150505050505091905050610578565b604051808215151515815260200191505060405180910390f35b6104446105a6565b005b341561045157600080fd5b6104c0600480803590602001908201803590602001908080601f0160208091040260200160405190810160405280939291908181526020018383808284378201915050505050509190803573ffffffffffffffffffffffffffffffffffffffff169060200190919050506105a8565b005b34156104cd57600080fd5b61053a600480803590602001908201803590602001908080601f0160208091040260200160405190810160405280939291908181526020018383808284378201915050505050509190803515159060200190919080359060200190919080359060200190919050506106f8565b005b6105446108f7565b61054c6108f7565b915091565b50565b600090565b505050565b6105666108f7565b61056e6108f7565b915091565b505050565b600080610584836106fe565b905060008160ff16141561059b57600091506105a0565b600191505b50919050565b565b6000809054906101000a900473ffffffffffffffffffffffffffffffffffffffff1673ffffffffffffffffffffffffffffffffffffffff163373ffffffffffffffffffffffffffffffffffffffff1614151561060357600080fd5b61060c82610578565b15151561061857600080fd5b6002600081819054906101000a900460ff168092919060010191906101000a81548160ff021916908360ff160217905550508160016000600260009054906101000a900460ff1660ff1660ff168152602001908152602001600020600101908051906020019061068992919061090b565b508060016000600260009054906101000a900460ff1660ff1660ff16815260200190815260200160002060000160006101000a81548173ffffffffffffffffffffffffffffffffffffffff021916908373ffffffffffffffffffffffffffffffffffffffff1602179055505050565b50505050565b600080600190505b600260009054906101000a900460ff1660ff168160ff1611151561076357610749600160008360ff1660ff1681526020019081526020016000206001018461076e565b1561075657809150610768565b8080600101915050610706565b600091505b50919050565b60008061077961098b565b60008592508491508151838054600181600116156101000203166002900490501415156107a957600093506108ee565b600090505b828054600181600116156101000203166002900490508110156108e95781818151811015156107d957fe5b9060200101517f010000000000000000000000000000000000000000000000000000000000000090047f0100000000000000000000000000000000000000000000000000000000000000027effffffffffffffffffffffffffffffffffffffffffffffffffffffffffffff19168382815460018160011615610100020316600290048110151561086557fe5b8154600116156108845790600052602060002090602091828204019190065b9054901a7f0100000000000000000000000000000000000000000000000000000000000000027effffffffffffffffffffffffffffffffffffffffffffffffffffffffffffff19161415156108dc57600093506108ee565b80806001019150506107ae565b600193505b50505092915050565b602060405190810160405280600081525090565b828054600181600116156101000203166002900490600052602060002090601f016020900481019282601f1061094c57805160ff191683800117855561097a565b8280016001018555821561097a579182015b8281111561097957825182559160200191906001019061095e565b5b509050610987919061099f565b5090565b602060405190810160405280600081525090565b6109c191905b808211156109bd5760008160009055506001016109a5565b5090565b905600a165627a7a72305820f059368e666059aa4e46a0d5c93f0808f5610233611130036593883095f54d850029",
  "source": "pragma solidity ^0.4.19;\n\nimport \"./owned.sol\";\nimport \"./JotaliToken.sol\";\n\ncontract JotaliExchange is owned {\n\n    function JotaliExchange() {\n\n    }\n\n    // General Structure\n    struct Offer {\n      uint amount;\n      address who;\n    }\n\n    struct OrderBook {\n        uint higherPrice;\n        uint lowerPrice;\n\n        mapping (uint => Offer) offers;\n\n        uint offers_key;\n        uint offers_length;\n    }\n\n    struct Token {\n      address tokenContract;\n      string symbolName;\n\n      mapping (uint => OrderBook) buyBook;\n\n      uint currentBuyprice;\n      uint lowestBuyPrice;\n      uint amountBuyPrice;\n\n      mapping (uint => OrderBook) sellBook;\n\n      uint currentSellPrice;\n      uint highestSellPrice;\n      uint amountSellPrice;\n    }\n\n    //Support a max of 255 tokens.\n    mapping (uint8 => Token) tokens;\n    uint8 symbolNameIndex;\n\n    // Balances\n    mapping (address => mapping (uint8 => uint)) tokenBalanceForAddress;\n\n    mapping (address => uint) balanceEthForAddress;\n\n    // Ether Deposit and Withdrawal\n    function depositEther() payable {\n\n    }\n\n    function withdrawEther(uint amountInWei) {\n\n    }\n\n    function getEtherBalanceInWei() constant returns (uint) {\n\n    }\n\n    // Token Management\n    function addToken(string symbolName, address erc20TokenAddress) onlyOwner {\n      require(!hasToken(symbolName));\n      symbolNameIndex++;\n      tokens[symbolNameIndex].symbolName = symbolName;\n      tokens[symbolNameIndex].tokenContract = erc20TokenAddress;\n    }\n\n    function hasToken(string symbolName) constant returns (bool) {\n      uint8 index = getSymbolIndex(symbolName);\n      if (index == 0) {\n        return false;\n      }\n      return true;\n    }\n\n    function getSymbolIndex(string symbolName) internal returns (uint8) {\n      for (uint8 i = 1; i <= symbolNameIndex; i++) {\n        if (stringsEqual(tokens[i].symbolName, symbolName)) {\n          return i;\n        }\n      }\n      return 0;\n    }\n\n    // String Comparison Function\n    function stringsEqual(string storage _a, string memory _b) internal returns (bool) {\n      bytes storage a = bytes(_a);\n      bytes memory b = bytes(_b);\n      if (a.length != b.length)\n        return false;\n      // @todo unroll the loop\n      for (uint i = 0; i < a.length; i ++)\n        if (a[i] != b[i])\n          return false;\n        return true;\n    }\n\n    // Order Book - Bid Orders\n    function getBuyOrderBook(string symbolName) constant returns (uint[], uint[]) {\n\n    }\n\n    // Order Book - Ask Orders\n    function getSellOrderBook(string symbolName) constant returns (uint[], uint[]) {\n\n    }\n\n    // New Order - Bid Order\n    function buyToken(string symbolName, uint priceInWei, uint amount) {\n\n    }\n\n    // New Order - Ask Order\n    function sellToken(string symbolName, uint priceInWei, uint amount) {\n\n    }\n\n    // Cancel Limit Order Logic\n    function cancelOrder(string symbolName, bool isSellOrder, uint priceInWei, uint offerKey) {\n\n    }\n\n}\n",
  "sourcePath": "/Users/fodediop/crypto/exchange/contracts/JotaliExchange.sol",
  "compiler": {
    "name": "solc",
    "version": "0.4.19+commit.c4cbbb05.Emscripten.clang"
  },
  "schemaVersion": "2.0.0",
  "updatedAt": "2018-03-06T22:01:58.157Z"
}