{
  "contractName": "JotaliExchange",
  "abi": [
    {
      "inputs": [],
      "payable": false,
      "stateMutability": "nonpayable",
      "type": "constructor"
    },
    {
      "constant": false,
      "inputs": [],
      "name": "depositEther",
      "outputs": [],
      "payable": true,
      "stateMutability": "payable",
      "type": "function"
    },
    {
      "constant": false,
      "inputs": [
        {
          "name": "amountInWei",
          "type": "uint256"
        }
      ],
      "name": "withdrawEther",
      "outputs": [],
      "payable": false,
      "stateMutability": "nonpayable",
      "type": "function"
    },
    {
      "constant": true,
      "inputs": [],
      "name": "getEtherBalanceInWei",
      "outputs": [
        {
          "name": "",
          "type": "uint256"
        }
      ],
      "payable": false,
      "stateMutability": "view",
      "type": "function"
    },
    {
      "constant": false,
      "inputs": [
        {
          "name": "symbolName",
          "type": "string"
        },
        {
          "name": "erc20TokenAddress",
          "type": "address"
        }
      ],
      "name": "addToken",
      "outputs": [],
      "payable": false,
      "stateMutability": "nonpayable",
      "type": "function"
    },
    {
      "constant": true,
      "inputs": [
        {
          "name": "symbolName",
          "type": "string"
        }
      ],
      "name": "hasToken",
      "outputs": [
        {
          "name": "",
          "type": "bool"
        }
      ],
      "payable": false,
      "stateMutability": "view",
      "type": "function"
    },
    {
      "constant": true,
      "inputs": [
        {
          "name": "symbolName",
          "type": "string"
        }
      ],
      "name": "getBuyOrderBook",
      "outputs": [
        {
          "name": "",
          "type": "uint256[]"
        },
        {
          "name": "",
          "type": "uint256[]"
        }
      ],
      "payable": false,
      "stateMutability": "view",
      "type": "function"
    },
    {
      "constant": true,
      "inputs": [
        {
          "name": "symbolName",
          "type": "string"
        }
      ],
      "name": "getSellOrderBook",
      "outputs": [
        {
          "name": "",
          "type": "uint256[]"
        },
        {
          "name": "",
          "type": "uint256[]"
        }
      ],
      "payable": false,
      "stateMutability": "view",
      "type": "function"
    },
    {
      "constant": false,
      "inputs": [
        {
          "name": "symbolName",
          "type": "string"
        },
        {
          "name": "priceInWei",
          "type": "uint256"
        },
        {
          "name": "amount",
          "type": "uint256"
        }
      ],
      "name": "buyToken",
      "outputs": [],
      "payable": false,
      "stateMutability": "nonpayable",
      "type": "function"
    },
    {
      "constant": false,
      "inputs": [
        {
          "name": "symbolName",
          "type": "string"
        },
        {
          "name": "priceInWei",
          "type": "uint256"
        },
        {
          "name": "amount",
          "type": "uint256"
        }
      ],
      "name": "sellToken",
      "outputs": [],
      "payable": false,
      "stateMutability": "nonpayable",
      "type": "function"
    },
    {
      "constant": false,
      "inputs": [
        {
          "name": "symbolName",
          "type": "string"
        },
        {
          "name": "isSellOrder",
          "type": "bool"
        },
        {
          "name": "priceInWei",
          "type": "uint256"
        },
        {
          "name": "offerKey",
          "type": "uint256"
        }
      ],
      "name": "cancelOrder",
      "outputs": [],
      "payable": false,
      "stateMutability": "nonpayable",
      "type": "function"
    }
  ],
  "bytecode": "0x6060604052341561000f57600080fd5b61069c8061001e6000396000f3006060604052600436106100a35763ffffffff7c010000000000000000000000000000000000000000000000000000000060003504166303bc4a2781146100a85780633bed33ce146101925780635320024e146101aa5780635ab8ea33146101cf578063728ff029146100a8578063851030fe146101cf5780638ea008181461022757806398ea5fca1461028c578063b0b22c2c14610294578063d1a3b025146102fd575b600080fd5b34156100b357600080fd5b6100f960046024813581810190830135806020601f8201819004810201604051908101604052818152929190602084018383808284375094965061035c95505050505050565b604051808060200180602001838103835285818151815260200191508051906020019060200280838360005b8381101561013d578082015183820152602001610125565b50505050905001838103825284818151815260200191508051906020019060200280838360005b8381101561017c578082015183820152602001610164565b5050505090500194505050505060405180910390f35b341561019d57600080fd5b6101a8600435610371565b005b34156101b557600080fd5b6101bd610374565b60405190815260200160405180910390f35b34156101da57600080fd5b6101a860046024813581810190830135806020601f820181900481020160405190810160405281815292919060208401838380828437509496505084359460200135935061037992505050565b341561023257600080fd5b61027860046024813581810190830135806020601f8201819004810201604051908101604052818152929190602084018383808284375094965061037e95505050505050565b604051901515815260200160405180910390f35b6101a86103aa565b341561029f57600080fd5b6101a860046024813581810190830135806020601f820181900481020160405190810160405281815292919060208401838380828437509496505050923573ffffffffffffffffffffffffffffffffffffffff1692506103ac915050565b341561030857600080fd5b6101a860046024813581810190830135806020601f82018190048102016040519081016040528181529291906020840183838082843750949650505050823515159260208101359250604001359050610446565b6103646105c3565b61036c6105c3565b915091565b50565b600090565b505050565b60008061038a8361044c565b905060ff8116151561039f57600091506103a4565b600191505b50919050565b565b6103b58261037e565b156103bf57600080fd5b6001805460ff19811660ff9182168301821617808355166000908152602081905260409020018280516103f69291602001906105d5565b5060015460ff166000908152602081905260409020805473ffffffffffffffffffffffffffffffffffffffff191673ffffffffffffffffffffffffffffffffffffffff9290921691909117905550565b50505050565b600060015b60015460ff908116908216116104955760ff81166000908152602081905260409020610480906001018461049e565b1561048d578091506103a4565b600101610451565b50600092915050565b6000806104a96105c3565b508390508260008151835460026000196101006001841615020190911604146104d557600093506105ba565b5060005b8254600260001961010060018416150201909116048110156105b55781818151811061050157fe5b016020015160f860020a900460f860020a027effffffffffffffffffffffffffffffffffffffffffffffffffffffffffffff19168382815460018160011615610100020316600290048110151561055457fe5b8154600116156105735790600052602060002090602091828204019190065b9054901a60f860020a027fff0000000000000000000000000000000000000000000000000000000000000016146105ad57600093506105ba565b6001016104d9565b600193505b50505092915050565b60206040519081016040526000815290565b828054600181600116156101000203166002900490600052602060002090601f016020900481019282601f1061061657805160ff1916838001178555610643565b82800160010185558215610643579182015b82811115610643578251825591602001919060010190610628565b5061064f929150610653565b5090565b61066d91905b8082111561064f5760008155600101610659565b905600a165627a7a723058204216bc5a809606d5e84ae86783a856e07ace54783796193b208199cb2f3beb2c0029",
  "source": "pragma solidity ^0.4.19;\n\nimport \"./JotaliToken.sol\";\n\ncontract JotaliExchange {\n\n    function JotaliExchange() {\n\n    }\n\n    // General Structure\n    struct Offer {\n      uint amount;\n      address who;\n    }\n\n    struct OrderBook {\n        uint higherPrice;\n        uint lowerPrice;\n\n        mapping (uint => Offer) offers;\n\n        uint offers_key;\n        uint offers_length;\n    }\n\n    struct Token {\n      address tokenContract;\n      string symbolName;\n\n      mapping (uint => OrderBook) buyBook;\n\n      uint currentBuyprice;\n      uint lowestBuyPrice;\n      uint amountBuyPrice;\n\n      mapping (uint => OrderBook) sellBook;\n\n      uint currentSellPrice;\n      uint highestSellPrice;\n      uint amountSellPrice;\n    }\n\n    //Support a max of 255 tokens.\n    mapping (uint8 => Token) tokens;\n    uint8 symbolNameIndex;\n\n    // Balances\n    mapping (address => mapping (uint8 => uint)) tokenBalanceForAddress;\n\n    mapping (address => uint) balanceEthForAddress;\n\n    // Ether Deposit and Withdrawal\n    function depositEther() payable {\n\n    }\n\n    function withdrawEther(uint amountInWei) {\n\n    }\n\n    function getEtherBalanceInWei() constant returns (uint) {\n\n    }\n\n    // Token Management\n    function addToken(string symbolName, address erc20TokenAddress) {\n      require(!hasToken(symbolName));\n      symbolNameIndex++;\n      tokens[symbolNameIndex].symbolName = symbolName;\n      tokens[symbolNameIndex].tokenContract = erc20TokenAddress;\n    }\n\n    function hasToken(string symbolName) constant returns (bool) {\n      uint8 index = getSymbolIndex(symbolName);\n      if (index == 0) {\n        return false;\n      }\n      return true;\n    }\n\n    function getSymbolIndex(string symbolName) internal returns (uint8) {\n      for (uint8 i = 1; i <= symbolNameIndex; i++) {\n        if (stringsEqual(tokens[i].symbolName, symbolName)) {\n          return i;\n        }\n      }\n      return 0;\n    }\n\n    // String Comparison Function\n    function stringsEqual(string storage _a, string memory _b) internal returns (bool) {\n      bytes storage a = bytes(_a);\n      bytes memory b = bytes(_b);\n      if (a.length != b.length)\n        return false;\n      // @todo unroll the loop\n      for (uint i = 0; i < a.length; i ++)\n        if (a[i] != b[i])\n          return false;\n        return true;\n    }\n\n    // Order Book - Bid Orders\n    function getBuyOrderBook(string symbolName) constant returns (uint[], uint[]) {\n\n    }\n\n    // Order Book - Ask Orders\n    function getSellOrderBook(string symbolName) constant returns (uint[], uint[]) {\n\n    }\n\n    // New Order - Bid Order\n    function buyToken(string symbolName, uint priceInWei, uint amount) {\n\n    }\n\n    // New Order - Ask Order\n    function sellToken(string symbolName, uint priceInWei, uint amount) {\n\n    }\n\n    // Cancel Limit Order Logic\n    function cancelOrder(string symbolName, bool isSellOrder, uint priceInWei, uint offerKey) {\n\n    }\n\n}\n",
  "sourcePath": "/Users/fodediop/crypto/exchange/contracts/JotaliExchange.sol",
  "compiler": {
    "name": "solc",
    "version": "0.4.19+commit.c4cbbb05.Emscripten.clang"
  },
  "schemaVersion": "2.0.0",
  "updatedAt": "2018-03-07T01:45:44.198Z"
}